{"abi":[{"type":"constructor","inputs":[],"stateMutability":"nonpayable"},{"type":"function","name":"createPoll","inputs":[{"name":"_title","type":"string","internalType":"string"},{"name":"_options","type":"string[]","internalType":"string[]"},{"name":"_duration","type":"uint256","internalType":"uint256"}],"outputs":[],"stateMutability":"nonpayable"},{"type":"function","name":"getRequiredApproval","inputs":[],"outputs":[{"name":"","type":"uint256","internalType":"uint256"}],"stateMutability":"pure"},{"type":"function","name":"getTotalPolls","inputs":[],"outputs":[{"name":"","type":"uint256","internalType":"uint256"}],"stateMutability":"view"},{"type":"function","name":"getWinnerOption","inputs":[{"name":"pollId","type":"uint256","internalType":"uint256"}],"outputs":[{"name":"winnerOption","type":"string","internalType":"string"}],"stateMutability":"view"},{"type":"function","name":"hasMintedForPoll","inputs":[{"name":"","type":"uint256","internalType":"uint256"},{"name":"","type":"address","internalType":"address"}],"outputs":[{"name":"","type":"bool","internalType":"bool"}],"stateMutability":"view"},{"type":"function","name":"hasVoted","inputs":[{"name":"","type":"uint256","internalType":"uint256"},{"name":"","type":"address","internalType":"address"}],"outputs":[{"name":"","type":"bool","internalType":"bool"}],"stateMutability":"view"},{"type":"function","name":"isPollOpen","inputs":[{"name":"pollId","type":"uint256","internalType":"uint256"}],"outputs":[{"name":"","type":"bool","internalType":"bool"}],"stateMutability":"view"},{"type":"function","name":"mintAndVote","inputs":[{"name":"pollId","type":"uint256","internalType":"uint256"},{"name":"choice","type":"string","internalType":"string"}],"outputs":[],"stateMutability":"nonpayable"},{"type":"function","name":"mintTokenForPoll","inputs":[{"name":"pollId","type":"uint256","internalType":"uint256"}],"outputs":[],"stateMutability":"nonpayable"},{"type":"function","name":"needsTokenApproval","inputs":[{"name":"user","type":"address","internalType":"address"}],"outputs":[{"name":"","type":"bool","internalType":"bool"}],"stateMutability":"view"},{"type":"function","name":"owner","inputs":[],"outputs":[{"name":"","type":"address","internalType":"address"}],"stateMutability":"view"},{"type":"function","name":"pollDetails","inputs":[{"name":"pollId","type":"uint256","internalType":"uint256"}],"outputs":[{"name":"title","type":"string","internalType":"string"},{"name":"options","type":"string[]","internalType":"string[]"},{"name":"deadline","type":"uint256","internalType":"uint256"}],"stateMutability":"view"},{"type":"function","name":"pollResults","inputs":[{"name":"pollId","type":"uint256","internalType":"uint256"}],"outputs":[{"name":"","type":"uint256[]","internalType":"uint256[]"}],"stateMutability":"view"},{"type":"function","name":"polls","inputs":[{"name":"","type":"uint256","internalType":"uint256"}],"outputs":[{"name":"id","type":"uint256","internalType":"uint256"},{"name":"title","type":"string","internalType":"string"},{"name":"deadline","type":"uint256","internalType":"uint256"}],"stateMutability":"view"},{"type":"function","name":"renounceOwnership","inputs":[],"outputs":[],"stateMutability":"nonpayable"},{"type":"function","name":"setVotingToken","inputs":[{"name":"votingTokenAddress","type":"address","internalType":"address"}],"outputs":[],"stateMutability":"nonpayable"},{"type":"function","name":"transferOwnership","inputs":[{"name":"newOwner","type":"address","internalType":"address"}],"outputs":[],"stateMutability":"nonpayable"},{"type":"function","name":"vote","inputs":[{"name":"pollId","type":"uint256","internalType":"uint256"},{"name":"choice","type":"string","internalType":"string"}],"outputs":[],"stateMutability":"nonpayable"},{"type":"function","name":"voteCounts","inputs":[{"name":"","type":"uint256","internalType":"uint256"},{"name":"","type":"string","internalType":"string"}],"outputs":[{"name":"","type":"uint256","internalType":"uint256"}],"stateMutability":"view"},{"type":"function","name":"votingToken","inputs":[],"outputs":[{"name":"","type":"address","internalType":"contract VotingToken"}],"stateMutability":"view"},{"type":"event","name":"OwnershipTransferred","inputs":[{"name":"previousOwner","type":"address","indexed":true,"internalType":"address"},{"name":"newOwner","type":"address","indexed":true,"internalType":"address"}],"anonymous":false},{"type":"event","name":"PollCreated","inputs":[{"name":"pollId","type":"uint256","indexed":true,"internalType":"uint256"},{"name":"title","type":"string","indexed":false,"internalType":"string"},{"name":"deadline","type":"uint256","indexed":false,"internalType":"uint256"}],"anonymous":false},{"type":"event","name":"TokenMinted","inputs":[{"name":"pollId","type":"uint256","indexed":true,"internalType":"uint256"},{"name":"user","type":"address","indexed":true,"internalType":"address"},{"name":"amount","type":"uint256","indexed":false,"internalType":"uint256"}],"anonymous":false},{"type":"event","name":"VoteCast","inputs":[{"name":"pollId","type":"uint256","indexed":true,"internalType":"uint256"},{"name":"voter","type":"address","indexed":true,"internalType":"address"},{"name":"choice","type":"string","indexed":false,"internalType":"string"}],"anonymous":false},{"type":"error","name":"OwnableInvalidOwner","inputs":[{"name":"owner","type":"address","internalType":"address"}]},{"type":"error","name":"OwnableUnauthorizedAccount","inputs":[{"name":"account","type":"address","internalType":"address"}]}],"bytecode":{"object":"0x608060405234801561000f575f5ffd5b50335f73ffffffffffffffffffffffffffffffffffffffff168173ffffffffffffffffffffffffffffffffffffffff1603610081575f6040517f1e4fbdf70000000000000000000000000000000000000000000000000000000081526004016100789190610196565b60405180910390fd5b6100908161009660201b60201c565b506101af565b5f5f5f9054906101000a900473ffffffffffffffffffffffffffffffffffffffff169050815f5f6101000a81548173ffffffffffffffffffffffffffffffffffffffff021916908373ffffffffffffffffffffffffffffffffffffffff1602179055508173ffffffffffffffffffffffffffffffffffffffff168173ffffffffffffffffffffffffffffffffffffffff167f8be0079c531659141344cd1fd0a4f28419497f9722a3daafe3b4186f6b6457e060405160405180910390a35050565b5f73ffffffffffffffffffffffffffffffffffffffff82169050919050565b5f61018082610157565b9050919050565b61019081610176565b82525050565b5f6020820190506101a95f830184610187565b92915050565b6129a0806101bc5f395ff3fe608060405234801561000f575f5ffd5b506004361061012a575f3560e01c8063922c4e39116100ab578063d1b3d1f61161006f578063d1b3d1f614610358578063e2d7462814610388578063eeae2ce0146103a4578063f2fde38b146103d4578063f8c860f4146103f05761012a565b8063922c4e391461028c57806394b564d6146102bc578063aa4e615b146102ec578063ac2f007414610308578063b03401231461033a5761012a565b806343859632116100f257806343859632146101e65780636d4df2d014610216578063715018a614610234578063894c9b311461023e5780638da5cb5b1461026e5761012a565b8063213e7ba81461012e578063241084751461015e57806336e9fbab1461017a5780633bf09728146101965780633ef87d54146101c8575b5f5ffd5b61014860048036038101906101439190611844565b61040c565b6040516101559190611926565b60405180910390f35b61017860048036038101906101739190611a82565b610561565b005b610194600480360381019061018f9190611a82565b6109c1565b005b6101b060048036038101906101ab9190611844565b610a36565b6040516101bf93929190611c4e565b60405180910390f35b6101d0610c17565b6040516101dd9190611c91565b60405180910390f35b61020060048036038101906101fb9190611d04565b610c23565b60405161020d9190611d5c565b60405180910390f35b61021e610c4d565b60405161022b9190611c91565b60405180910390f35b61023c610c5c565b005b61025860048036038101906102539190611844565b610c6f565b6040516102659190611d5c565b60405180910390f35b610276610ce4565b6040516102839190611d84565b60405180910390f35b6102a660048036038101906102a19190611d04565b610d0b565b6040516102b39190611d5c565b60405180910390f35b6102d660048036038101906102d19190611d9d565b610d35565b6040516102e39190611d5c565b60405180910390f35b61030660048036038101906103019190611844565b610de2565b005b610322600480360381019061031d9190611844565b611076565b60405161033193929190611dc8565b60405180910390f35b610342611131565b60405161034f9190611e5f565b60405180910390f35b610372600480360381019061036d9190611844565b611156565b60405161037f9190611e78565b60405180910390f35b6103a2600480360381019061039d9190611d9d565b611342565b005b6103be60048036038101906103b99190611a82565b61141c565b6040516103cb9190611c91565b60405180910390f35b6103ee60048036038101906103e99190611d9d565b611454565b005b61040a60048036038101906104059190611f7a565b6114d8565b005b60606001805490508210610455576040517f08c379a000000000000000000000000000000000000000000000000000000000815260040161044c9061204c565b60405180910390fd5b5f6001838154811061046a5761046961206a565b5b905f5260205f20906004020190505f816002018054905067ffffffffffffffff81111561049a5761049961195e565b5b6040519080825280602002602001820160405280156104c85781602001602082028036833780820191505090505b5090505f5f90505b82600201805490508110156105565760035f8681526020019081526020015f208360020182815481106105065761050561206a565b5b905f5260205f200160405161051b9190612190565b90815260200160405180910390205482828151811061053d5761053c61206a565b5b60200260200101818152505080806001019150506104d0565b508092505050919050565b60018054905082106105a8576040517f08c379a000000000000000000000000000000000000000000000000000000000815260040161059f9061204c565b60405180910390fd5b5f600183815481106105bd576105bc61206a565b5b905f5260205f209060040201905080600301544210610611576040517f08c379a0000000000000000000000000000000000000000000000000000000008152600401610608906121f0565b60405180910390fd5b60025f8481526020019081526020015f205f3373ffffffffffffffffffffffffffffffffffffffff1673ffffffffffffffffffffffffffffffffffffffff1681526020019081526020015f205f9054906101000a900460ff16156106aa576040517f08c379a00000000000000000000000000000000000000000000000000000000081526004016106a190612258565b60405180910390fd5b5f60055f9054906101000a900473ffffffffffffffffffffffffffffffffffffffff1673ffffffffffffffffffffffffffffffffffffffff166370a08231336040518263ffffffff1660e01b81526004016107059190611d84565b602060405180830381865afa158015610720573d5f5f3e3d5ffd5b505050506040513d601f19601f82011682018060405250810190610744919061228a565b11610784576040517f08c379a000000000000000000000000000000000000000000000000000000000815260040161077b906122ff565b60405180910390fd5b5f5f90505f5f90505b82600201805490508110156107f25783805190602001208360020182815481106107ba576107b961206a565b5b905f5260205f20016040516107cf91906123b9565b6040518091039020036107e557600191506107f2565b808060010191505061078d565b5080610833576040517f08c379a000000000000000000000000000000000000000000000000000000000815260040161082a90612419565b60405180910390fd5b600160025f8681526020019081526020015f205f3373ffffffffffffffffffffffffffffffffffffffff1673ffffffffffffffffffffffffffffffffffffffff1681526020019081526020015f205f6101000a81548160ff021916908315150217905550600160035f8681526020019081526020015f20846040516108b89190612467565b90815260200160405180910390205f8282546108d491906124aa565b925050819055503373ffffffffffffffffffffffffffffffffffffffff16847ff707341d6361ac6d7fe6b6db1fbb91b1d8634754ce51f2244ccbfab475d327f4856040516109229190611e78565b60405180910390a360055f9054906101000a900473ffffffffffffffffffffffffffffffffffffffff1673ffffffffffffffffffffffffffffffffffffffff166379cc679033670de0b6b3a76400006040518363ffffffff1660e01b815260040161098e929190612516565b5f604051808303815f87803b1580156109a5575f5ffd5b505af11580156109b7573d5f5f3e3d5ffd5b5050505050505050565b60045f8381526020019081526020015f205f3373ffffffffffffffffffffffffffffffffffffffff1673ffffffffffffffffffffffffffffffffffffffff1681526020019081526020015f205f9054906101000a900460ff16610a2857610a2782610de2565b5b610a328282610561565b5050565b6060805f6001805490508410610a81576040517f08c379a0000000000000000000000000000000000000000000000000000000008152600401610a789061204c565b60405180910390fd5b5f60018581548110610a9657610a9561206a565b5b905f5260205f209060040201905080600101816002018260030154828054610abd906120c4565b80601f0160208091040260200160405190810160405280929190818152602001828054610ae9906120c4565b8015610b345780601f10610b0b57610100808354040283529160200191610b34565b820191905f5260205f20905b815481529060010190602001808311610b1757829003601f168201915b5050505050925081805480602002602001604051908101604052809291908181526020015f905b82821015610c03578382905f5260205f20018054610b78906120c4565b80601f0160208091040260200160405190810160405280929190818152602001828054610ba4906120c4565b8015610bef5780601f10610bc657610100808354040283529160200191610bef565b820191905f5260205f20905b815481529060010190602001808311610bd257829003601f168201915b505050505081526020019060010190610b5b565b505050509150935093509350509193909250565b5f600180549050905090565b6002602052815f5260405f20602052805f5260405f205f915091509054906101000a900460ff1681565b5f670de0b6b3a7640000905090565b610c646115df565b610c6d5f611666565b565b5f6001805490508210610cb7576040517f08c379a0000000000000000000000000000000000000000000000000000000008152600401610cae9061204c565b60405180910390fd5b60018281548110610ccb57610cca61206a565b5b905f5260205f2090600402016003015442109050919050565b5f5f5f9054906101000a900473ffffffffffffffffffffffffffffffffffffffff16905090565b6004602052815f5260405f20602052805f5260405f205f915091509054906101000a900460ff1681565b5f670de0b6b3a764000060055f9054906101000a900473ffffffffffffffffffffffffffffffffffffffff1673ffffffffffffffffffffffffffffffffffffffff1663dd62ed3e84306040518363ffffffff1660e01b8152600401610d9b92919061253d565b602060405180830381865afa158015610db6573d5f5f3e3d5ffd5b505050506040513d601f19601f82011682018060405250810190610dda919061228a565b109050919050565b6001805490508110610e29576040517f08c379a0000000000000000000000000000000000000000000000000000000008152600401610e209061204c565b60405180910390fd5b60045f8281526020019081526020015f205f3373ffffffffffffffffffffffffffffffffffffffff1673ffffffffffffffffffffffffffffffffffffffff1681526020019081526020015f205f9054906101000a900460ff1615610ec2576040517f08c379a0000000000000000000000000000000000000000000000000000000008152600401610eb9906125ae565b60405180910390fd5b60018181548110610ed657610ed561206a565b5b905f5260205f209060040201600301544210610f27576040517f08c379a0000000000000000000000000000000000000000000000000000000008152600401610f1e906121f0565b60405180910390fd5b600160045f8381526020019081526020015f205f3373ffffffffffffffffffffffffffffffffffffffff1673ffffffffffffffffffffffffffffffffffffffff1681526020019081526020015f205f6101000a81548160ff02191690831515021790555060055f9054906101000a900473ffffffffffffffffffffffffffffffffffffffff1673ffffffffffffffffffffffffffffffffffffffff166340c10f1933670de0b6b3a76400006040518363ffffffff1660e01b8152600401610fef929190612516565b5f604051808303815f87803b158015611006575f5ffd5b505af1158015611018573d5f5f3e3d5ffd5b505050503373ffffffffffffffffffffffffffffffffffffffff16817f2d03118aa776f7008445f6ca8490a6782ede2db364d741513555ba656ab1879f670de0b6b3a764000060405161106b91906125cc565b60405180910390a350565b60018181548110611085575f80fd5b905f5260205f2090600402015f91509050805f0154908060010180546110aa906120c4565b80601f01602080910402602001604051908101604052809291908181526020018280546110d6906120c4565b80156111215780601f106110f857610100808354040283529160200191611121565b820191905f5260205f20905b81548152906001019060200180831161110457829003601f168201915b5050505050908060030154905083565b60055f9054906101000a900473ffffffffffffffffffffffffffffffffffffffff1681565b6060600180549050821061119f576040517f08c379a00000000000000000000000000000000000000000000000000000000081526004016111969061204c565b60405180910390fd5b5f600183815481106111b4576111b361206a565b5b905f5260205f20906004020190505f81600201805490501161120b576040517f08c379a00000000000000000000000000000000000000000000000000000000081526004016112029061262f565b60405180910390fd5b5f5f90505f5f90505f5f90505b8360020180549050811015611292575f60035f8881526020019081526020015f2085600201838154811061124f5761124e61206a565b5b905f5260205f20016040516112649190612190565b908152602001604051809103902054905083811115611284578093508192505b508080600101915050611218565b508260020181815481106112a9576112a861206a565b5b905f5260205f200180546112bc906120c4565b80601f01602080910402602001604051908101604052809291908181526020018280546112e8906120c4565b80156113335780601f1061130a57610100808354040283529160200191611333565b820191905f5260205f20905b81548152906001019060200180831161131657829003601f168201915b50505050509350505050919050565b61134a6115df565b5f73ffffffffffffffffffffffffffffffffffffffff1660055f9054906101000a900473ffffffffffffffffffffffffffffffffffffffff1673ffffffffffffffffffffffffffffffffffffffff16146113d9576040517f08c379a00000000000000000000000000000000000000000000000000000000081526004016113d090612697565b60405180910390fd5b8060055f6101000a81548173ffffffffffffffffffffffffffffffffffffffff021916908373ffffffffffffffffffffffffffffffffffffffff16021790555050565b6003602052815f5260405f20818051602081018201805184825260208301602085012081835280955050505050505f91509150505481565b61145c6115df565b5f73ffffffffffffffffffffffffffffffffffffffff168173ffffffffffffffffffffffffffffffffffffffff16036114cc575f6040517f1e4fbdf70000000000000000000000000000000000000000000000000000000081526004016114c39190611d84565b60405180910390fd5b6114d581611666565b50565b6114e06115df565b5f60405180608001604052806001805490508152602001858152602001848152602001834261150f91906124aa565b8152509050600181908060018154018082558091505060019003905f5260205f2090600402015f909190919091505f820151815f0155602082015181600101908161155a919061283a565b50604082015181600201908051906020019061157792919061172e565b50606082015181600301555050600180805490506115959190612909565b7fc3ad3dd4f77bea708d7c21b918efa79c536b30c5048924662db7a2bd96f483168584426115c391906124aa565b6040516115d192919061293c565b60405180910390a250505050565b6115e7611727565b73ffffffffffffffffffffffffffffffffffffffff16611605610ce4565b73ffffffffffffffffffffffffffffffffffffffff161461166457611628611727565b6040517f118cdaa700000000000000000000000000000000000000000000000000000000815260040161165b9190611d84565b60405180910390fd5b565b5f5f5f9054906101000a900473ffffffffffffffffffffffffffffffffffffffff169050815f5f6101000a81548173ffffffffffffffffffffffffffffffffffffffff021916908373ffffffffffffffffffffffffffffffffffffffff1602179055508173ffffffffffffffffffffffffffffffffffffffff168173ffffffffffffffffffffffffffffffffffffffff167f8be0079c531659141344cd1fd0a4f28419497f9722a3daafe3b4186f6b6457e060405160405180910390a35050565b5f33905090565b828054828255905f5260205f20908101928215611774579160200282015b82811115611773578251829081611763919061283a565b509160200191906001019061174c565b5b5090506117819190611785565b5090565b5b808211156117a4575f818161179b91906117a8565b50600101611786565b5090565b5080546117b4906120c4565b5f825580601f106117c557506117e2565b601f0160209004905f5260205f20908101906117e191906117e5565b5b50565b5b808211156117fc575f815f9055506001016117e6565b5090565b5f604051905090565b5f5ffd5b5f5ffd5b5f819050919050565b61182381611811565b811461182d575f5ffd5b50565b5f8135905061183e8161181a565b92915050565b5f6020828403121561185957611858611809565b5b5f61186684828501611830565b91505092915050565b5f81519050919050565b5f82825260208201905092915050565b5f819050602082019050919050565b6118a181611811565b82525050565b5f6118b28383611898565b60208301905092915050565b5f602082019050919050565b5f6118d48261186f565b6118de8185611879565b93506118e983611889565b805f5b8381101561191957815161190088826118a7565b975061190b836118be565b9250506001810190506118ec565b5085935050505092915050565b5f6020820190508181035f83015261193e81846118ca565b905092915050565b5f5ffd5b5f5ffd5b5f601f19601f8301169050919050565b7f4e487b71000000000000000000000000000000000000000000000000000000005f52604160045260245ffd5b6119948261194e565b810181811067ffffffffffffffff821117156119b3576119b261195e565b5b80604052505050565b5f6119c5611800565b90506119d1828261198b565b919050565b5f67ffffffffffffffff8211156119f0576119ef61195e565b5b6119f98261194e565b9050602081019050919050565b828183375f83830152505050565b5f611a26611a21846119d6565b6119bc565b905082815260208101848484011115611a4257611a4161194a565b5b611a4d848285611a06565b509392505050565b5f82601f830112611a6957611a68611946565b5b8135611a79848260208601611a14565b91505092915050565b5f5f60408385031215611a9857611a97611809565b5b5f611aa585828601611830565b925050602083013567ffffffffffffffff811115611ac657611ac561180d565b5b611ad285828601611a55565b9150509250929050565b5f81519050919050565b5f82825260208201905092915050565b8281835e5f83830152505050565b5f611b0e82611adc565b611b188185611ae6565b9350611b28818560208601611af6565b611b318161194e565b840191505092915050565b5f81519050919050565b5f82825260208201905092915050565b5f819050602082019050919050565b5f82825260208201905092915050565b5f611b7f82611adc565b611b898185611b65565b9350611b99818560208601611af6565b611ba28161194e565b840191505092915050565b5f611bb88383611b75565b905092915050565b5f602082019050919050565b5f611bd682611b3c565b611be08185611b46565b935083602082028501611bf285611b56565b805f5b85811015611c2d5784840389528151611c0e8582611bad565b9450611c1983611bc0565b925060208a01995050600181019050611bf5565b50829750879550505050505092915050565b611c4881611811565b82525050565b5f6060820190508181035f830152611c668186611b04565b90508181036020830152611c7a8185611bcc565b9050611c896040830184611c3f565b949350505050565b5f602082019050611ca45f830184611c3f565b92915050565b5f73ffffffffffffffffffffffffffffffffffffffff82169050919050565b5f611cd382611caa565b9050919050565b611ce381611cc9565b8114611ced575f5ffd5b50565b5f81359050611cfe81611cda565b92915050565b5f5f60408385031215611d1a57611d19611809565b5b5f611d2785828601611830565b9250506020611d3885828601611cf0565b9150509250929050565b5f8115159050919050565b611d5681611d42565b82525050565b5f602082019050611d6f5f830184611d4d565b92915050565b611d7e81611cc9565b82525050565b5f602082019050611d975f830184611d75565b92915050565b5f60208284031215611db257611db1611809565b5b5f611dbf84828501611cf0565b91505092915050565b5f606082019050611ddb5f830186611c3f565b8181036020830152611ded8185611b04565b9050611dfc6040830184611c3f565b949350505050565b5f819050919050565b5f611e27611e22611e1d84611caa565b611e04565b611caa565b9050919050565b5f611e3882611e0d565b9050919050565b5f611e4982611e2e565b9050919050565b611e5981611e3f565b82525050565b5f602082019050611e725f830184611e50565b92915050565b5f6020820190508181035f830152611e908184611b04565b905092915050565b5f67ffffffffffffffff821115611eb257611eb161195e565b5b602082029050602081019050919050565b5f5ffd5b5f611ed9611ed484611e98565b6119bc565b90508083825260208201905060208402830185811115611efc57611efb611ec3565b5b835b81811015611f4357803567ffffffffffffffff811115611f2157611f20611946565b5b808601611f2e8982611a55565b85526020850194505050602081019050611efe565b5050509392505050565b5f82601f830112611f6157611f60611946565b5b8135611f71848260208601611ec7565b91505092915050565b5f5f5f60608486031215611f9157611f90611809565b5b5f84013567ffffffffffffffff811115611fae57611fad61180d565b5b611fba86828701611a55565b935050602084013567ffffffffffffffff811115611fdb57611fda61180d565b5b611fe786828701611f4d565b9250506040611ff886828701611830565b9150509250925092565b7f506f6c6c20646f6573206e6f74206578697374000000000000000000000000005f82015250565b5f612036601383611ae6565b915061204182612002565b602082019050919050565b5f6020820190508181035f8301526120638161202a565b9050919050565b7f4e487b71000000000000000000000000000000000000000000000000000000005f52603260045260245ffd5b7f4e487b71000000000000000000000000000000000000000000000000000000005f52602260045260245ffd5b5f60028204905060018216806120db57607f821691505b6020821081036120ee576120ed612097565b5b50919050565b5f81905092915050565b5f819050815f5260205f209050919050565b5f815461211c816120c4565b61212681866120f4565b9450600182165f8114612140576001811461215557612187565b60ff1983168652811515820286019350612187565b61215e856120fe565b5f5b8381101561217f57815481890152600182019150602081019050612160565b838801955050505b50505092915050565b5f61219b8284612110565b915081905092915050565b7f506f6c6c20697320636c6f7365640000000000000000000000000000000000005f82015250565b5f6121da600e83611ae6565b91506121e5826121a6565b602082019050919050565b5f6020820190508181035f830152612207816121ce565b9050919050565b7f416c726561647920766f746564000000000000000000000000000000000000005f82015250565b5f612242600d83611ae6565b915061224d8261220e565b602082019050919050565b5f6020820190508181035f83015261226f81612236565b9050919050565b5f815190506122848161181a565b92915050565b5f6020828403121561229f5761229e611809565b5b5f6122ac84828501612276565b91505092915050565b7f4e6f20746f6b656e7320746f20766f74650000000000000000000000000000005f82015250565b5f6122e9601183611ae6565b91506122f4826122b5565b602082019050919050565b5f6020820190508181035f830152612316816122dd565b9050919050565b5f81905092915050565b5f819050815f5260205f209050919050565b5f8154612345816120c4565b61234f818661231d565b9450600182165f8114612369576001811461237e576123b0565b60ff19831686528115158202860193506123b0565b61238785612327565b5f5b838110156123a857815481890152600182019150602081019050612389565b838801955050505b50505092915050565b5f6123c48284612339565b915081905092915050565b7f496e76616c6964206f7074696f6e0000000000000000000000000000000000005f82015250565b5f612403600e83611ae6565b915061240e826123cf565b602082019050919050565b5f6020820190508181035f830152612430816123f7565b9050919050565b5f61244182611adc565b61244b81856120f4565b935061245b818560208601611af6565b80840191505092915050565b5f6124728284612437565b915081905092915050565b7f4e487b71000000000000000000000000000000000000000000000000000000005f52601160045260245ffd5b5f6124b482611811565b91506124bf83611811565b92508282019050808211156124d7576124d661247d565b5b92915050565b5f819050919050565b5f6125006124fb6124f6846124dd565b611e04565b611811565b9050919050565b612510816124e6565b82525050565b5f6040820190506125295f830185611d75565b6125366020830184612507565b9392505050565b5f6040820190506125505f830185611d75565b61255d6020830184611d75565b9392505050565b7f416c7265616479206d696e74656420666f72207468697320706f6c6c000000005f82015250565b5f612598601c83611ae6565b91506125a382612564565b602082019050919050565b5f6020820190508181035f8301526125c58161258c565b9050919050565b5f6020820190506125df5f830184612507565b92915050565b7f506f6c6c20686173206e6f206f7074696f6e73000000000000000000000000005f82015250565b5f612619601383611ae6565b9150612624826125e5565b602082019050919050565b5f6020820190508181035f8301526126468161260d565b9050919050565b7f566f74696e67546f6b656e20616c7265616479207365740000000000000000005f82015250565b5f612681601783611ae6565b915061268c8261264d565b602082019050919050565b5f6020820190508181035f8301526126ae81612675565b9050919050565b5f6020601f8301049050919050565b5f82821b905092915050565b5f600883026126ff7fffffffffffffffffffffffffffffffffffffffffffffffffffffffffffffffff826126c4565b61270986836126c4565b95508019841693508086168417925050509392505050565b5f61273b61273661273184611811565b611e04565b611811565b9050919050565b5f819050919050565b61275483612721565b61276861276082612742565b8484546126d0565b825550505050565b5f5f905090565b61277f612770565b61278a81848461274b565b505050565b5b818110156127ad576127a25f82612777565b600181019050612790565b5050565b601f8211156127f2576127c3816120fe565b6127cc846126b5565b810160208510156127db578190505b6127ef6127e7856126b5565b83018261278f565b50505b505050565b5f82821c905092915050565b5f6128125f19846008026127f7565b1980831691505092915050565b5f61282a8383612803565b9150826002028217905092915050565b61284382611adc565b67ffffffffffffffff81111561285c5761285b61195e565b5b61286682546120c4565b6128718282856127b1565b5f60209050601f8311600181146128a2575f8415612890578287015190505b61289a858261281f565b865550612901565b601f1984166128b0866120fe565b5f5b828110156128d7578489015182556001820191506020850194506020810190506128b2565b868310156128f457848901516128f0601f891682612803565b8355505b6001600288020188555050505b505050505050565b5f61291382611811565b915061291e83611811565b92508282039050818111156129365761293561247d565b5b92915050565b5f6040820190508181035f8301526129548185611b04565b90506129636020830184611c3f565b939250505056fea2646970667358221220960bf6d58717e7dda5636719da5161f0577fd26fcd35425d6299baa7dceca45464736f6c634300081e0033","linkReferences":{}},"methodIdentifiers":{"createPoll(string,string[],uint256)":"f8c860f4","getRequiredApproval()":"6d4df2d0","getTotalPolls()":"3ef87d54","getWinnerOption(uint256)":"d1b3d1f6","hasMintedForPoll(uint256,address)":"922c4e39","hasVoted(uint256,address)":"43859632","isPollOpen(uint256)":"894c9b31","mintAndVote(uint256,string)":"36e9fbab","mintTokenForPoll(uint256)":"aa4e615b","needsTokenApproval(address)":"94b564d6","owner()":"8da5cb5b","pollDetails(uint256)":"3bf09728","pollResults(uint256)":"213e7ba8","polls(uint256)":"ac2f0074","renounceOwnership()":"715018a6","setVotingToken(address)":"e2d74628","transferOwnership(address)":"f2fde38b","vote(uint256,string)":"24108475","voteCounts(uint256,string)":"eeae2ce0","votingToken()":"b0340123"},"id":26}