{"abi":[{"type":"constructor","inputs":[],"stateMutability":"nonpayable"},{"type":"function","name":"createPoll","inputs":[{"name":"_title","type":"string","internalType":"string"},{"name":"_options","type":"string[]","internalType":"string[]"},{"name":"_duration","type":"uint256","internalType":"uint256"}],"outputs":[],"stateMutability":"nonpayable"},{"type":"function","name":"getRequiredApproval","inputs":[],"outputs":[{"name":"","type":"uint256","internalType":"uint256"}],"stateMutability":"pure"},{"type":"function","name":"getTotalPolls","inputs":[],"outputs":[{"name":"","type":"uint256","internalType":"uint256"}],"stateMutability":"view"},{"type":"function","name":"getWinnerOption","inputs":[{"name":"pollId","type":"uint256","internalType":"uint256"}],"outputs":[{"name":"winnerOption","type":"string","internalType":"string"}],"stateMutability":"view"},{"type":"function","name":"hasMintedForPoll","inputs":[{"name":"","type":"uint256","internalType":"uint256"},{"name":"","type":"address","internalType":"address"}],"outputs":[{"name":"","type":"bool","internalType":"bool"}],"stateMutability":"view"},{"type":"function","name":"hasVoted","inputs":[{"name":"","type":"uint256","internalType":"uint256"},{"name":"","type":"address","internalType":"address"}],"outputs":[{"name":"","type":"bool","internalType":"bool"}],"stateMutability":"view"},{"type":"function","name":"isPollOpen","inputs":[{"name":"pollId","type":"uint256","internalType":"uint256"}],"outputs":[{"name":"","type":"bool","internalType":"bool"}],"stateMutability":"view"},{"type":"function","name":"mintAndVote","inputs":[{"name":"pollId","type":"uint256","internalType":"uint256"},{"name":"optionIndex","type":"uint256","internalType":"uint256"}],"outputs":[],"stateMutability":"nonpayable"},{"type":"function","name":"mintTokenForPoll","inputs":[{"name":"pollId","type":"uint256","internalType":"uint256"}],"outputs":[],"stateMutability":"nonpayable"},{"type":"function","name":"needsTokenApproval","inputs":[{"name":"user","type":"address","internalType":"address"}],"outputs":[{"name":"","type":"bool","internalType":"bool"}],"stateMutability":"view"},{"type":"function","name":"owner","inputs":[],"outputs":[{"name":"","type":"address","internalType":"address"}],"stateMutability":"view"},{"type":"function","name":"pollDetails","inputs":[{"name":"pollId","type":"uint256","internalType":"uint256"}],"outputs":[{"name":"title","type":"string","internalType":"string"},{"name":"options","type":"string[]","internalType":"string[]"},{"name":"deadline","type":"uint256","internalType":"uint256"}],"stateMutability":"view"},{"type":"function","name":"pollResults","inputs":[{"name":"pollId","type":"uint256","internalType":"uint256"}],"outputs":[{"name":"","type":"uint256[]","internalType":"uint256[]"}],"stateMutability":"view"},{"type":"function","name":"polls","inputs":[{"name":"","type":"uint256","internalType":"uint256"}],"outputs":[{"name":"id","type":"uint256","internalType":"uint256"},{"name":"title","type":"string","internalType":"string"},{"name":"deadline","type":"uint256","internalType":"uint256"}],"stateMutability":"view"},{"type":"function","name":"renounceOwnership","inputs":[],"outputs":[],"stateMutability":"nonpayable"},{"type":"function","name":"setVotingToken","inputs":[{"name":"votingTokenAddress","type":"address","internalType":"address"}],"outputs":[],"stateMutability":"nonpayable"},{"type":"function","name":"transferOwnership","inputs":[{"name":"newOwner","type":"address","internalType":"address"}],"outputs":[],"stateMutability":"nonpayable"},{"type":"function","name":"vote","inputs":[{"name":"pollId","type":"uint256","internalType":"uint256"},{"name":"optionIndex","type":"uint256","internalType":"uint256"}],"outputs":[],"stateMutability":"nonpayable"},{"type":"function","name":"voteCounts","inputs":[{"name":"","type":"uint256","internalType":"uint256"},{"name":"","type":"string","internalType":"string"}],"outputs":[{"name":"","type":"uint256","internalType":"uint256"}],"stateMutability":"view"},{"type":"function","name":"votingToken","inputs":[],"outputs":[{"name":"","type":"address","internalType":"contract VotingToken"}],"stateMutability":"view"},{"type":"event","name":"OwnershipTransferred","inputs":[{"name":"previousOwner","type":"address","indexed":true,"internalType":"address"},{"name":"newOwner","type":"address","indexed":true,"internalType":"address"}],"anonymous":false},{"type":"event","name":"PollCreated","inputs":[{"name":"pollId","type":"uint256","indexed":true,"internalType":"uint256"},{"name":"title","type":"string","indexed":false,"internalType":"string"},{"name":"deadline","type":"uint256","indexed":false,"internalType":"uint256"}],"anonymous":false},{"type":"event","name":"TokenMinted","inputs":[{"name":"pollId","type":"uint256","indexed":true,"internalType":"uint256"},{"name":"user","type":"address","indexed":true,"internalType":"address"},{"name":"amount","type":"uint256","indexed":false,"internalType":"uint256"}],"anonymous":false},{"type":"event","name":"VoteCast","inputs":[{"name":"pollId","type":"uint256","indexed":true,"internalType":"uint256"},{"name":"voter","type":"address","indexed":true,"internalType":"address"},{"name":"choice","type":"string","indexed":false,"internalType":"string"}],"anonymous":false},{"type":"error","name":"OwnableInvalidOwner","inputs":[{"name":"owner","type":"address","internalType":"address"}]},{"type":"error","name":"OwnableUnauthorizedAccount","inputs":[{"name":"account","type":"address","internalType":"address"}]}],"bytecode":{"object":"0x608060405234801561000f575f5ffd5b50335f73ffffffffffffffffffffffffffffffffffffffff168173ffffffffffffffffffffffffffffffffffffffff1603610081575f6040517f1e4fbdf70000000000000000000000000000000000000000000000000000000081526004016100789190610196565b60405180910390fd5b6100908161009660201b60201c565b506101af565b5f5f5f9054906101000a900473ffffffffffffffffffffffffffffffffffffffff169050815f5f6101000a81548173ffffffffffffffffffffffffffffffffffffffff021916908373ffffffffffffffffffffffffffffffffffffffff1602179055508173ffffffffffffffffffffffffffffffffffffffff168173ffffffffffffffffffffffffffffffffffffffff167f8be0079c531659141344cd1fd0a4f28419497f9722a3daafe3b4186f6b6457e060405160405180910390a35050565b5f73ffffffffffffffffffffffffffffffffffffffff82169050919050565b5f61018082610157565b9050919050565b61019081610176565b82525050565b5f6020820190506101a95f830184610187565b92915050565b612f6e806101bc5f395ff3fe608060405234801561000f575f5ffd5b506004361061012a575f3560e01c8063aa4e615b116100ab578063d1b3d1f61161006f578063d1b3d1f614610358578063e2d7462814610388578063eeae2ce0146103a4578063f2fde38b146103d4578063f8c860f4146103f05761012a565b8063aa4e615b146102b4578063ac2f0074146102d0578063b034012314610302578063b384abef14610320578063bdf94a5e1461033c5761012a565b8063715018a6116100f2578063715018a6146101fc578063894c9b31146102065780638da5cb5b14610236578063922c4e391461025457806394b564d6146102845761012a565b8063213e7ba81461012e5780633bf097281461015e5780633ef87d541461019057806343859632146101ae5780636d4df2d0146101de575b5f5ffd5b61014860048036038101906101439190611e2b565b61040c565b6040516101559190611f0d565b60405180910390f35b61017860048036038101906101739190611e2b565b610561565b604051610187939291906120af565b60405180910390f35b610198610742565b6040516101a591906120f2565b60405180910390f35b6101c860048036038101906101c39190612165565b61074e565b6040516101d591906121bd565b60405180910390f35b6101e6610778565b6040516101f391906120f2565b60405180910390f35b610204610787565b005b610220600480360381019061021b9190611e2b565b61079a565b60405161022d91906121bd565b60405180910390f35b61023e61080f565b60405161024b91906121e5565b60405180910390f35b61026e60048036038101906102699190612165565b610836565b60405161027b91906121bd565b60405180910390f35b61029e600480360381019061029991906121fe565b610860565b6040516102ab91906121bd565b60405180910390f35b6102ce60048036038101906102c99190611e2b565b61090d565b005b6102ea60048036038101906102e59190611e2b565b610ba1565b6040516102f993929190612229565b60405180910390f35b61030a610c5c565b60405161031791906122c0565b60405180910390f35b61033a600480360381019061033591906122d9565b610c81565b005b610356600480360381019061035191906122d9565b6110b4565b005b610372600480360381019061036d9190611e2b565b61173d565b60405161037f9190612317565b60405180910390f35b6103a2600480360381019061039d91906121fe565b611929565b005b6103be60048036038101906103b99190612463565b611a03565b6040516103cb91906120f2565b60405180910390f35b6103ee60048036038101906103e991906121fe565b611a3b565b005b61040a6004803603810190610405919061259f565b611abf565b005b60606001805490508210610455576040517f08c379a000000000000000000000000000000000000000000000000000000000815260040161044c90612671565b60405180910390fd5b5f6001838154811061046a5761046961268f565b5b905f5260205f20906004020190505f816002018054905067ffffffffffffffff81111561049a5761049961233f565b5b6040519080825280602002602001820160405280156104c85781602001602082028036833780820191505090505b5090505f5f90505b82600201805490508110156105565760045f8681526020019081526020015f208360020182815481106105065761050561268f565b5b905f5260205f200160405161051b91906127b5565b90815260200160405180910390205482828151811061053d5761053c61268f565b5b60200260200101818152505080806001019150506104d0565b508092505050919050565b6060805f60018054905084106105ac576040517f08c379a00000000000000000000000000000000000000000000000000000000081526004016105a390612671565b60405180910390fd5b5f600185815481106105c1576105c061268f565b5b905f5260205f2090600402019050806001018160020182600301548280546105e8906126e9565b80601f0160208091040260200160405190810160405280929190818152602001828054610614906126e9565b801561065f5780601f106106365761010080835404028352916020019161065f565b820191905f5260205f20905b81548152906001019060200180831161064257829003601f168201915b5050505050925081805480602002602001604051908101604052809291908181526020015f905b8282101561072e578382905f5260205f200180546106a3906126e9565b80601f01602080910402602001604051908101604052809291908181526020018280546106cf906126e9565b801561071a5780601f106106f15761010080835404028352916020019161071a565b820191905f5260205f20905b8154815290600101906020018083116106fd57829003601f168201915b505050505081526020019060010190610686565b505050509150935093509350509193909250565b5f600180549050905090565b6003602052815f5260405f20602052805f5260405f205f915091509054906101000a900460ff1681565b5f670de0b6b3a7640000905090565b61078f611bc6565b6107985f611c4d565b565b5f60018054905082106107e2576040517f08c379a00000000000000000000000000000000000000000000000000000000081526004016107d990612671565b60405180910390fd5b600182815481106107f6576107f561268f565b5b905f5260205f2090600402016003015442109050919050565b5f5f5f9054906101000a900473ffffffffffffffffffffffffffffffffffffffff16905090565b6005602052815f5260405f20602052805f5260405f205f915091509054906101000a900460ff1681565b5f670de0b6b3a764000060025f9054906101000a900473ffffffffffffffffffffffffffffffffffffffff1673ffffffffffffffffffffffffffffffffffffffff1663dd62ed3e84306040518363ffffffff1660e01b81526004016108c69291906127cb565b602060405180830381865afa1580156108e1573d5f5f3e3d5ffd5b505050506040513d601f19601f820116820180604052508101906109059190612806565b109050919050565b6001805490508110610954576040517f08c379a000000000000000000000000000000000000000000000000000000000815260040161094b90612671565b60405180910390fd5b60055f8281526020019081526020015f205f3373ffffffffffffffffffffffffffffffffffffffff1673ffffffffffffffffffffffffffffffffffffffff1681526020019081526020015f205f9054906101000a900460ff16156109ed576040517f08c379a00000000000000000000000000000000000000000000000000000000081526004016109e49061287b565b60405180910390fd5b60018181548110610a0157610a0061268f565b5b905f5260205f209060040201600301544210610a52576040517f08c379a0000000000000000000000000000000000000000000000000000000008152600401610a49906128e3565b60405180910390fd5b600160055f8381526020019081526020015f205f3373ffffffffffffffffffffffffffffffffffffffff1673ffffffffffffffffffffffffffffffffffffffff1681526020019081526020015f205f6101000a81548160ff02191690831515021790555060025f9054906101000a900473ffffffffffffffffffffffffffffffffffffffff1673ffffffffffffffffffffffffffffffffffffffff166340c10f1933670de0b6b3a76400006040518363ffffffff1660e01b8152600401610b1a92919061293a565b5f604051808303815f87803b158015610b31575f5ffd5b505af1158015610b43573d5f5f3e3d5ffd5b505050503373ffffffffffffffffffffffffffffffffffffffff16817f2d03118aa776f7008445f6ca8490a6782ede2db364d741513555ba656ab1879f670de0b6b3a7640000604051610b969190612961565b60405180910390a350565b60018181548110610bb0575f80fd5b905f5260205f2090600402015f91509050805f015490806001018054610bd5906126e9565b80601f0160208091040260200160405190810160405280929190818152602001828054610c01906126e9565b8015610c4c5780601f10610c2357610100808354040283529160200191610c4c565b820191905f5260205f20905b815481529060010190602001808311610c2f57829003601f168201915b5050505050908060030154905083565b60025f9054906101000a900473ffffffffffffffffffffffffffffffffffffffff1681565b6001805490508210610cc8576040517f08c379a0000000000000000000000000000000000000000000000000000000008152600401610cbf90612671565b60405180910390fd5b5f60018381548110610cdd57610cdc61268f565b5b905f5260205f209060040201905080600301544210610d31576040517f08c379a0000000000000000000000000000000000000000000000000000000008152600401610d28906128e3565b60405180910390fd5b60035f8481526020019081526020015f205f3373ffffffffffffffffffffffffffffffffffffffff1673ffffffffffffffffffffffffffffffffffffffff1681526020019081526020015f205f9054906101000a900460ff1615610dca576040517f08c379a0000000000000000000000000000000000000000000000000000000008152600401610dc1906129c4565b60405180910390fd5b5f60025f9054906101000a900473ffffffffffffffffffffffffffffffffffffffff1673ffffffffffffffffffffffffffffffffffffffff166370a08231336040518263ffffffff1660e01b8152600401610e2591906121e5565b602060405180830381865afa158015610e40573d5f5f3e3d5ffd5b505050506040513d601f19601f82011682018060405250810190610e649190612806565b11610ea4576040517f08c379a0000000000000000000000000000000000000000000000000000000008152600401610e9b90612a2c565b60405180910390fd5b80600201805490508210610eed576040517f08c379a0000000000000000000000000000000000000000000000000000000008152600401610ee490612a94565b60405180910390fd5b600160035f8581526020019081526020015f205f3373ffffffffffffffffffffffffffffffffffffffff1673ffffffffffffffffffffffffffffffffffffffff1681526020019081526020015f205f6101000a81548160ff021916908315150217905550600160045f8581526020019081526020015f20826002018481548110610f7a57610f7961268f565b5b905f5260205f2001604051610f8f91906127b5565b90815260200160405180910390205f828254610fab9190612adf565b925050819055503373ffffffffffffffffffffffffffffffffffffffff16837ff707341d6361ac6d7fe6b6db1fbb91b1d8634754ce51f2244ccbfab475d327f48360020185815481106110015761100061268f565b5b905f5260205f20016040516110169190612b93565b60405180910390a360025f9054906101000a900473ffffffffffffffffffffffffffffffffffffffff1673ffffffffffffffffffffffffffffffffffffffff166379cc679033670de0b6b3a76400006040518363ffffffff1660e01b815260040161108292919061293a565b5f604051808303815f87803b158015611099575f5ffd5b505af11580156110ab573d5f5f3e3d5ffd5b50505050505050565b60055f8381526020019081526020015f205f3373ffffffffffffffffffffffffffffffffffffffff1673ffffffffffffffffffffffffffffffffffffffff1681526020019081526020015f205f9054906101000a900460ff1661130a576001805490508210611158576040517f08c379a000000000000000000000000000000000000000000000000000000000815260040161114f90612671565b60405180910390fd5b6001828154811061116c5761116b61268f565b5b905f5260205f2090600402016003015442106111bd576040517f08c379a00000000000000000000000000000000000000000000000000000000081526004016111b4906128e3565b60405180910390fd5b600160055f8481526020019081526020015f205f3373ffffffffffffffffffffffffffffffffffffffff1673ffffffffffffffffffffffffffffffffffffffff1681526020019081526020015f205f6101000a81548160ff02191690831515021790555060025f9054906101000a900473ffffffffffffffffffffffffffffffffffffffff1673ffffffffffffffffffffffffffffffffffffffff166340c10f1933670de0b6b3a76400006040518363ffffffff1660e01b815260040161128592919061293a565b5f604051808303815f87803b15801561129c575f5ffd5b505af11580156112ae573d5f5f3e3d5ffd5b505050503373ffffffffffffffffffffffffffffffffffffffff16827f2d03118aa776f7008445f6ca8490a6782ede2db364d741513555ba656ab1879f670de0b6b3a76400006040516113019190612961565b60405180910390a35b6001805490508210611351576040517f08c379a000000000000000000000000000000000000000000000000000000000815260040161134890612671565b60405180910390fd5b5f600183815481106113665761136561268f565b5b905f5260205f2090600402019050806003015442106113ba576040517f08c379a00000000000000000000000000000000000000000000000000000000081526004016113b1906128e3565b60405180910390fd5b60035f8481526020019081526020015f205f3373ffffffffffffffffffffffffffffffffffffffff1673ffffffffffffffffffffffffffffffffffffffff1681526020019081526020015f205f9054906101000a900460ff1615611453576040517f08c379a000000000000000000000000000000000000000000000000000000000815260040161144a906129c4565b60405180910390fd5b5f60025f9054906101000a900473ffffffffffffffffffffffffffffffffffffffff1673ffffffffffffffffffffffffffffffffffffffff166370a08231336040518263ffffffff1660e01b81526004016114ae91906121e5565b602060405180830381865afa1580156114c9573d5f5f3e3d5ffd5b505050506040513d601f19601f820116820180604052508101906114ed9190612806565b1161152d576040517f08c379a000000000000000000000000000000000000000000000000000000000815260040161152490612a2c565b60405180910390fd5b80600201805490508210611576576040517f08c379a000000000000000000000000000000000000000000000000000000000815260040161156d90612a94565b60405180910390fd5b600160035f8581526020019081526020015f205f3373ffffffffffffffffffffffffffffffffffffffff1673ffffffffffffffffffffffffffffffffffffffff1681526020019081526020015f205f6101000a81548160ff021916908315150217905550600160045f8581526020019081526020015f208260020184815481106116035761160261268f565b5b905f5260205f200160405161161891906127b5565b90815260200160405180910390205f8282546116349190612adf565b925050819055503373ffffffffffffffffffffffffffffffffffffffff16837ff707341d6361ac6d7fe6b6db1fbb91b1d8634754ce51f2244ccbfab475d327f483600201858154811061168a5761168961268f565b5b905f5260205f200160405161169f9190612b93565b60405180910390a360025f9054906101000a900473ffffffffffffffffffffffffffffffffffffffff1673ffffffffffffffffffffffffffffffffffffffff166379cc679033670de0b6b3a76400006040518363ffffffff1660e01b815260040161170b92919061293a565b5f604051808303815f87803b158015611722575f5ffd5b505af1158015611734573d5f5f3e3d5ffd5b50505050505050565b60606001805490508210611786576040517f08c379a000000000000000000000000000000000000000000000000000000000815260040161177d90612671565b60405180910390fd5b5f6001838154811061179b5761179a61268f565b5b905f5260205f20906004020190505f8160020180549050116117f2576040517f08c379a00000000000000000000000000000000000000000000000000000000081526004016117e990612bfd565b60405180910390fd5b5f5f90505f5f90505f5f90505b8360020180549050811015611879575f60045f8881526020019081526020015f208560020183815481106118365761183561268f565b5b905f5260205f200160405161184b91906127b5565b90815260200160405180910390205490508381111561186b578093508192505b5080806001019150506117ff565b508260020181815481106118905761188f61268f565b5b905f5260205f200180546118a3906126e9565b80601f01602080910402602001604051908101604052809291908181526020018280546118cf906126e9565b801561191a5780601f106118f15761010080835404028352916020019161191a565b820191905f5260205f20905b8154815290600101906020018083116118fd57829003601f168201915b50505050509350505050919050565b611931611bc6565b5f73ffffffffffffffffffffffffffffffffffffffff1660025f9054906101000a900473ffffffffffffffffffffffffffffffffffffffff1673ffffffffffffffffffffffffffffffffffffffff16146119c0576040517f08c379a00000000000000000000000000000000000000000000000000000000081526004016119b790612c65565b60405180910390fd5b8060025f6101000a81548173ffffffffffffffffffffffffffffffffffffffff021916908373ffffffffffffffffffffffffffffffffffffffff16021790555050565b6004602052815f5260405f20818051602081018201805184825260208301602085012081835280955050505050505f91509150505481565b611a43611bc6565b5f73ffffffffffffffffffffffffffffffffffffffff168173ffffffffffffffffffffffffffffffffffffffff1603611ab3575f6040517f1e4fbdf7000000000000000000000000000000000000000000000000000000008152600401611aaa91906121e5565b60405180910390fd5b611abc81611c4d565b50565b611ac7611bc6565b5f604051806080016040528060018054905081526020018581526020018481526020018342611af69190612adf565b8152509050600181908060018154018082558091505060019003905f5260205f2090600402015f909190919091505f820151815f01556020820151816001019081611b419190612e08565b506040820151816002019080519060200190611b5e929190611d15565b5060608201518160030155505060018080549050611b7c9190612ed7565b7fc3ad3dd4f77bea708d7c21b918efa79c536b30c5048924662db7a2bd96f48316858442611baa9190612adf565b604051611bb8929190612f0a565b60405180910390a250505050565b611bce611d0e565b73ffffffffffffffffffffffffffffffffffffffff16611bec61080f565b73ffffffffffffffffffffffffffffffffffffffff1614611c4b57611c0f611d0e565b6040517f118cdaa7000000000000000000000000000000000000000000000000000000008152600401611c4291906121e5565b60405180910390fd5b565b5f5f5f9054906101000a900473ffffffffffffffffffffffffffffffffffffffff169050815f5f6101000a81548173ffffffffffffffffffffffffffffffffffffffff021916908373ffffffffffffffffffffffffffffffffffffffff1602179055508173ffffffffffffffffffffffffffffffffffffffff168173ffffffffffffffffffffffffffffffffffffffff167f8be0079c531659141344cd1fd0a4f28419497f9722a3daafe3b4186f6b6457e060405160405180910390a35050565b5f33905090565b828054828255905f5260205f20908101928215611d5b579160200282015b82811115611d5a578251829081611d4a9190612e08565b5091602001919060010190611d33565b5b509050611d689190611d6c565b5090565b5b80821115611d8b575f8181611d829190611d8f565b50600101611d6d565b5090565b508054611d9b906126e9565b5f825580601f10611dac5750611dc9565b601f0160209004905f5260205f2090810190611dc89190611dcc565b5b50565b5b80821115611de3575f815f905550600101611dcd565b5090565b5f604051905090565b5f5ffd5b5f5ffd5b5f819050919050565b611e0a81611df8565b8114611e14575f5ffd5b50565b5f81359050611e2581611e01565b92915050565b5f60208284031215611e4057611e3f611df0565b5b5f611e4d84828501611e17565b91505092915050565b5f81519050919050565b5f82825260208201905092915050565b5f819050602082019050919050565b611e8881611df8565b82525050565b5f611e998383611e7f565b60208301905092915050565b5f602082019050919050565b5f611ebb82611e56565b611ec58185611e60565b9350611ed083611e70565b805f5b83811015611f00578151611ee78882611e8e565b9750611ef283611ea5565b925050600181019050611ed3565b5085935050505092915050565b5f6020820190508181035f830152611f258184611eb1565b905092915050565b5f81519050919050565b5f82825260208201905092915050565b8281835e5f83830152505050565b5f601f19601f8301169050919050565b5f611f6f82611f2d565b611f798185611f37565b9350611f89818560208601611f47565b611f9281611f55565b840191505092915050565b5f81519050919050565b5f82825260208201905092915050565b5f819050602082019050919050565b5f82825260208201905092915050565b5f611fe082611f2d565b611fea8185611fc6565b9350611ffa818560208601611f47565b61200381611f55565b840191505092915050565b5f6120198383611fd6565b905092915050565b5f602082019050919050565b5f61203782611f9d565b6120418185611fa7565b93508360208202850161205385611fb7565b805f5b8581101561208e578484038952815161206f858261200e565b945061207a83612021565b925060208a01995050600181019050612056565b50829750879550505050505092915050565b6120a981611df8565b82525050565b5f6060820190508181035f8301526120c78186611f65565b905081810360208301526120db818561202d565b90506120ea60408301846120a0565b949350505050565b5f6020820190506121055f8301846120a0565b92915050565b5f73ffffffffffffffffffffffffffffffffffffffff82169050919050565b5f6121348261210b565b9050919050565b6121448161212a565b811461214e575f5ffd5b50565b5f8135905061215f8161213b565b92915050565b5f5f6040838503121561217b5761217a611df0565b5b5f61218885828601611e17565b925050602061219985828601612151565b9150509250929050565b5f8115159050919050565b6121b7816121a3565b82525050565b5f6020820190506121d05f8301846121ae565b92915050565b6121df8161212a565b82525050565b5f6020820190506121f85f8301846121d6565b92915050565b5f6020828403121561221357612212611df0565b5b5f61222084828501612151565b91505092915050565b5f60608201905061223c5f8301866120a0565b818103602083015261224e8185611f65565b905061225d60408301846120a0565b949350505050565b5f819050919050565b5f61228861228361227e8461210b565b612265565b61210b565b9050919050565b5f6122998261226e565b9050919050565b5f6122aa8261228f565b9050919050565b6122ba816122a0565b82525050565b5f6020820190506122d35f8301846122b1565b92915050565b5f5f604083850312156122ef576122ee611df0565b5b5f6122fc85828601611e17565b925050602061230d85828601611e17565b9150509250929050565b5f6020820190508181035f83015261232f8184611f65565b905092915050565b5f5ffd5b5f5ffd5b7f4e487b71000000000000000000000000000000000000000000000000000000005f52604160045260245ffd5b61237582611f55565b810181811067ffffffffffffffff821117156123945761239361233f565b5b80604052505050565b5f6123a6611de7565b90506123b2828261236c565b919050565b5f67ffffffffffffffff8211156123d1576123d061233f565b5b6123da82611f55565b9050602081019050919050565b828183375f83830152505050565b5f612407612402846123b7565b61239d565b9050828152602081018484840111156124235761242261233b565b5b61242e8482856123e7565b509392505050565b5f82601f83011261244a57612449612337565b5b813561245a8482602086016123f5565b91505092915050565b5f5f6040838503121561247957612478611df0565b5b5f61248685828601611e17565b925050602083013567ffffffffffffffff8111156124a7576124a6611df4565b5b6124b385828601612436565b9150509250929050565b5f67ffffffffffffffff8211156124d7576124d661233f565b5b602082029050602081019050919050565b5f5ffd5b5f6124fe6124f9846124bd565b61239d565b90508083825260208201905060208402830185811115612521576125206124e8565b5b835b8181101561256857803567ffffffffffffffff81111561254657612545612337565b5b8086016125538982612436565b85526020850194505050602081019050612523565b5050509392505050565b5f82601f83011261258657612585612337565b5b81356125968482602086016124ec565b91505092915050565b5f5f5f606084860312156125b6576125b5611df0565b5b5f84013567ffffffffffffffff8111156125d3576125d2611df4565b5b6125df86828701612436565b935050602084013567ffffffffffffffff811115612600576125ff611df4565b5b61260c86828701612572565b925050604061261d86828701611e17565b9150509250925092565b7f506f6c6c20646f6573206e6f74206578697374000000000000000000000000005f82015250565b5f61265b601383611f37565b915061266682612627565b602082019050919050565b5f6020820190508181035f8301526126888161264f565b9050919050565b7f4e487b71000000000000000000000000000000000000000000000000000000005f52603260045260245ffd5b7f4e487b71000000000000000000000000000000000000000000000000000000005f52602260045260245ffd5b5f600282049050600182168061270057607f821691505b602082108103612713576127126126bc565b5b50919050565b5f81905092915050565b5f819050815f5260205f209050919050565b5f8154612741816126e9565b61274b8186612719565b9450600182165f8114612765576001811461277a576127ac565b60ff19831686528115158202860193506127ac565b61278385612723565b5f5b838110156127a457815481890152600182019150602081019050612785565b838801955050505b50505092915050565b5f6127c08284612735565b915081905092915050565b5f6040820190506127de5f8301856121d6565b6127eb60208301846121d6565b9392505050565b5f8151905061280081611e01565b92915050565b5f6020828403121561281b5761281a611df0565b5b5f612828848285016127f2565b91505092915050565b7f416c7265616479206d696e74656420666f72207468697320706f6c6c000000005f82015250565b5f612865601c83611f37565b915061287082612831565b602082019050919050565b5f6020820190508181035f83015261289281612859565b9050919050565b7f506f6c6c20697320636c6f7365640000000000000000000000000000000000005f82015250565b5f6128cd600e83611f37565b91506128d882612899565b602082019050919050565b5f6020820190508181035f8301526128fa816128c1565b9050919050565b5f819050919050565b5f61292461291f61291a84612901565b612265565b611df8565b9050919050565b6129348161290a565b82525050565b5f60408201905061294d5f8301856121d6565b61295a602083018461292b565b9392505050565b5f6020820190506129745f83018461292b565b92915050565b7f416c726561647920766f746564000000000000000000000000000000000000005f82015250565b5f6129ae600d83611f37565b91506129b98261297a565b602082019050919050565b5f6020820190508181035f8301526129db816129a2565b9050919050565b7f4e6f20746f6b656e7320746f20766f74650000000000000000000000000000005f82015250565b5f612a16601183611f37565b9150612a21826129e2565b602082019050919050565b5f6020820190508181035f830152612a4381612a0a565b9050919050565b7f496e76616c6964206f7074696f6e20696e6465780000000000000000000000005f82015250565b5f612a7e601483611f37565b9150612a8982612a4a565b602082019050919050565b5f6020820190508181035f830152612aab81612a72565b9050919050565b7f4e487b71000000000000000000000000000000000000000000000000000000005f52601160045260245ffd5b5f612ae982611df8565b9150612af483611df8565b9250828201905080821115612b0c57612b0b612ab2565b5b92915050565b5f8154612b1e816126e9565b612b288186611f37565b9450600182165f8114612b425760018114612b5857612b8a565b60ff198316865281151560200286019350612b8a565b612b6185612723565b5f5b83811015612b8257815481890152600182019150602081019050612b63565b808801955050505b50505092915050565b5f6020820190508181035f830152612bab8184612b12565b905092915050565b7f506f6c6c20686173206e6f206f7074696f6e73000000000000000000000000005f82015250565b5f612be7601383611f37565b9150612bf282612bb3565b602082019050919050565b5f6020820190508181035f830152612c1481612bdb565b9050919050565b7f566f74696e67546f6b656e20616c7265616479207365740000000000000000005f82015250565b5f612c4f601783611f37565b9150612c5a82612c1b565b602082019050919050565b5f6020820190508181035f830152612c7c81612c43565b9050919050565b5f6020601f8301049050919050565b5f82821b905092915050565b5f60088302612ccd7fffffffffffffffffffffffffffffffffffffffffffffffffffffffffffffffff82612c92565b612cd78683612c92565b95508019841693508086168417925050509392505050565b5f612d09612d04612cff84611df8565b612265565b611df8565b9050919050565b5f819050919050565b612d2283612cef565b612d36612d2e82612d10565b848454612c9e565b825550505050565b5f5f905090565b612d4d612d3e565b612d58818484612d19565b505050565b5b81811015612d7b57612d705f82612d45565b600181019050612d5e565b5050565b601f821115612dc057612d9181612723565b612d9a84612c83565b81016020851015612da9578190505b612dbd612db585612c83565b830182612d5d565b50505b505050565b5f82821c905092915050565b5f612de05f1984600802612dc5565b1980831691505092915050565b5f612df88383612dd1565b9150826002028217905092915050565b612e1182611f2d565b67ffffffffffffffff811115612e2a57612e2961233f565b5b612e3482546126e9565b612e3f828285612d7f565b5f60209050601f831160018114612e70575f8415612e5e578287015190505b612e688582612ded565b865550612ecf565b601f198416612e7e86612723565b5f5b82811015612ea557848901518255600182019150602085019450602081019050612e80565b86831015612ec25784890151612ebe601f891682612dd1565b8355505b6001600288020188555050505b505050505050565b5f612ee182611df8565b9150612eec83611df8565b9250828203905081811115612f0457612f03612ab2565b5b92915050565b5f6040820190508181035f830152612f228185611f65565b9050612f3160208301846120a0565b939250505056fea2646970667358221220f21dc27db4c5e8ff8a31193a2b2e19119fa323792e2fd20f0bfa2ab414650cce64736f6c634300081e0033","linkReferences":{}},"methodIdentifiers":{"createPoll(string,string[],uint256)":"f8c860f4","getRequiredApproval()":"6d4df2d0","getTotalPolls()":"3ef87d54","getWinnerOption(uint256)":"d1b3d1f6","hasMintedForPoll(uint256,address)":"922c4e39","hasVoted(uint256,address)":"43859632","isPollOpen(uint256)":"894c9b31","mintAndVote(uint256,uint256)":"bdf94a5e","mintTokenForPoll(uint256)":"aa4e615b","needsTokenApproval(address)":"94b564d6","owner()":"8da5cb5b","pollDetails(uint256)":"3bf09728","pollResults(uint256)":"213e7ba8","polls(uint256)":"ac2f0074","renounceOwnership()":"715018a6","setVotingToken(address)":"e2d74628","transferOwnership(address)":"f2fde38b","vote(uint256,uint256)":"b384abef","voteCounts(uint256,string)":"eeae2ce0","votingToken()":"b0340123"},"id":26}