{"abi":[{"type":"constructor","inputs":[],"stateMutability":"nonpayable"},{"type":"function","name":"createPoll","inputs":[{"name":"_title","type":"string","internalType":"string"},{"name":"_options","type":"string[]","internalType":"string[]"},{"name":"_duration","type":"uint256","internalType":"uint256"}],"outputs":[],"stateMutability":"nonpayable"},{"type":"function","name":"getRequiredApproval","inputs":[],"outputs":[{"name":"","type":"uint256","internalType":"uint256"}],"stateMutability":"pure"},{"type":"function","name":"getTotalPolls","inputs":[],"outputs":[{"name":"","type":"uint256","internalType":"uint256"}],"stateMutability":"view"},{"type":"function","name":"getWinnerOption","inputs":[{"name":"pollId","type":"uint256","internalType":"uint256"}],"outputs":[{"name":"winnerOption","type":"string","internalType":"string"}],"stateMutability":"view"},{"type":"function","name":"hasMintedForPoll","inputs":[{"name":"","type":"uint256","internalType":"uint256"},{"name":"","type":"address","internalType":"address"}],"outputs":[{"name":"","type":"bool","internalType":"bool"}],"stateMutability":"view"},{"type":"function","name":"hasVoted","inputs":[{"name":"","type":"uint256","internalType":"uint256"},{"name":"","type":"address","internalType":"address"}],"outputs":[{"name":"","type":"bool","internalType":"bool"}],"stateMutability":"view"},{"type":"function","name":"isPollOpen","inputs":[{"name":"pollId","type":"uint256","internalType":"uint256"}],"outputs":[{"name":"","type":"bool","internalType":"bool"}],"stateMutability":"view"},{"type":"function","name":"mintAndVote","inputs":[{"name":"pollId","type":"uint256","internalType":"uint256"},{"name":"choice","type":"string","internalType":"string"}],"outputs":[],"stateMutability":"nonpayable"},{"type":"function","name":"mintAndVoteByIndex","inputs":[{"name":"pollId","type":"uint256","internalType":"uint256"},{"name":"optionIndex","type":"uint256","internalType":"uint256"}],"outputs":[],"stateMutability":"nonpayable"},{"type":"function","name":"mintTokenForPoll","inputs":[{"name":"pollId","type":"uint256","internalType":"uint256"}],"outputs":[],"stateMutability":"nonpayable"},{"type":"function","name":"needsTokenApproval","inputs":[{"name":"user","type":"address","internalType":"address"}],"outputs":[{"name":"","type":"bool","internalType":"bool"}],"stateMutability":"view"},{"type":"function","name":"owner","inputs":[],"outputs":[{"name":"","type":"address","internalType":"address"}],"stateMutability":"view"},{"type":"function","name":"pollDetails","inputs":[{"name":"pollId","type":"uint256","internalType":"uint256"}],"outputs":[{"name":"title","type":"string","internalType":"string"},{"name":"options","type":"string[]","internalType":"string[]"},{"name":"deadline","type":"uint256","internalType":"uint256"}],"stateMutability":"view"},{"type":"function","name":"pollResults","inputs":[{"name":"pollId","type":"uint256","internalType":"uint256"}],"outputs":[{"name":"","type":"uint256[]","internalType":"uint256[]"}],"stateMutability":"view"},{"type":"function","name":"polls","inputs":[{"name":"","type":"uint256","internalType":"uint256"}],"outputs":[{"name":"id","type":"uint256","internalType":"uint256"},{"name":"title","type":"string","internalType":"string"},{"name":"deadline","type":"uint256","internalType":"uint256"}],"stateMutability":"view"},{"type":"function","name":"renounceOwnership","inputs":[],"outputs":[],"stateMutability":"nonpayable"},{"type":"function","name":"setVotingToken","inputs":[{"name":"votingTokenAddress","type":"address","internalType":"address"}],"outputs":[],"stateMutability":"nonpayable"},{"type":"function","name":"transferOwnership","inputs":[{"name":"newOwner","type":"address","internalType":"address"}],"outputs":[],"stateMutability":"nonpayable"},{"type":"function","name":"vote","inputs":[{"name":"pollId","type":"uint256","internalType":"uint256"},{"name":"choice","type":"string","internalType":"string"}],"outputs":[],"stateMutability":"nonpayable"},{"type":"function","name":"voteByIndex","inputs":[{"name":"pollId","type":"uint256","internalType":"uint256"},{"name":"optionIndex","type":"uint256","internalType":"uint256"}],"outputs":[],"stateMutability":"nonpayable"},{"type":"function","name":"voteCounts","inputs":[{"name":"","type":"uint256","internalType":"uint256"},{"name":"","type":"string","internalType":"string"}],"outputs":[{"name":"","type":"uint256","internalType":"uint256"}],"stateMutability":"view"},{"type":"function","name":"votingToken","inputs":[],"outputs":[{"name":"","type":"address","internalType":"contract VotingToken"}],"stateMutability":"view"},{"type":"event","name":"OwnershipTransferred","inputs":[{"name":"previousOwner","type":"address","indexed":true,"internalType":"address"},{"name":"newOwner","type":"address","indexed":true,"internalType":"address"}],"anonymous":false},{"type":"event","name":"PollCreated","inputs":[{"name":"pollId","type":"uint256","indexed":true,"internalType":"uint256"},{"name":"title","type":"string","indexed":false,"internalType":"string"},{"name":"deadline","type":"uint256","indexed":false,"internalType":"uint256"}],"anonymous":false},{"type":"event","name":"TokenMinted","inputs":[{"name":"pollId","type":"uint256","indexed":true,"internalType":"uint256"},{"name":"user","type":"address","indexed":true,"internalType":"address"},{"name":"amount","type":"uint256","indexed":false,"internalType":"uint256"}],"anonymous":false},{"type":"event","name":"VoteCast","inputs":[{"name":"pollId","type":"uint256","indexed":true,"internalType":"uint256"},{"name":"voter","type":"address","indexed":true,"internalType":"address"},{"name":"choice","type":"string","indexed":false,"internalType":"string"}],"anonymous":false},{"type":"error","name":"OwnableInvalidOwner","inputs":[{"name":"owner","type":"address","internalType":"address"}]},{"type":"error","name":"OwnableUnauthorizedAccount","inputs":[{"name":"account","type":"address","internalType":"address"}]}],"bytecode":{"object":"0x608060405234801561000f575f5ffd5b50335f73ffffffffffffffffffffffffffffffffffffffff168173ffffffffffffffffffffffffffffffffffffffff1603610081575f6040517f1e4fbdf70000000000000000000000000000000000000000000000000000000081526004016100789190610196565b60405180910390fd5b6100908161009660201b60201c565b506101af565b5f5f5f9054906101000a900473ffffffffffffffffffffffffffffffffffffffff169050815f5f6101000a81548173ffffffffffffffffffffffffffffffffffffffff021916908373ffffffffffffffffffffffffffffffffffffffff1602179055508173ffffffffffffffffffffffffffffffffffffffff168173ffffffffffffffffffffffffffffffffffffffff167f8be0079c531659141344cd1fd0a4f28419497f9722a3daafe3b4186f6b6457e060405160405180910390a35050565b5f73ffffffffffffffffffffffffffffffffffffffff82169050919050565b5f61018082610157565b9050919050565b61019081610176565b82525050565b5f6020820190506101a95f830184610187565b92915050565b612fdd806101bc5f395ff3fe608060405234801561000f575f5ffd5b5060043610610140575f3560e01c80638da5cb5b116100b6578063b03401231161007a578063b034012314610388578063d1b3d1f6146103a6578063e2d74628146103d6578063eeae2ce0146103f2578063f2fde38b14610422578063f8c860f41461043e57610140565b80638da5cb5b146102bc578063922c4e39146102da57806394b564d61461030a578063aa4e615b1461033a578063ac2f00741461035657610140565b8063438596321161010857806343859632146101fc57806346f2f6271461022c5780636d4df2d0146102485780636db79e3a14610266578063715018a614610282578063894c9b311461028c57610140565b8063213e7ba814610144578063241084751461017457806336e9fbab146101905780633bf09728146101ac5780633ef87d54146101de575b5f5ffd5b61015e60048036038101906101599190611d3a565b61045a565b60405161016b9190611e1c565b60405180910390f35b61018e60048036038101906101899190611f78565b6105af565b005b6101aa60048036038101906101a59190611f78565b610a0f565b005b6101c660048036038101906101c19190611d3a565b610a84565b6040516101d593929190612144565b60405180910390f35b6101e6610c65565b6040516101f39190612187565b60405180910390f35b610216600480360381019061021191906121fa565b610c71565b6040516102239190612252565b60405180910390f35b6102466004803603810190610241919061226b565b610c9b565b005b6102506110ce565b60405161025d9190612187565b60405180910390f35b610280600480360381019061027b919061226b565b6110dd565b005b61028a611152565b005b6102a660048036038101906102a19190611d3a565b611165565b6040516102b39190612252565b60405180910390f35b6102c46111da565b6040516102d191906122b8565b60405180910390f35b6102f460048036038101906102ef91906121fa565b611201565b6040516103019190612252565b60405180910390f35b610324600480360381019061031f91906122d1565b61122b565b6040516103319190612252565b60405180910390f35b610354600480360381019061034f9190611d3a565b6112d8565b005b610370600480360381019061036b9190611d3a565b61156c565b60405161037f939291906122fc565b60405180910390f35b610390611627565b60405161039d9190612393565b60405180910390f35b6103c060048036038101906103bb9190611d3a565b61164c565b6040516103cd91906123ac565b60405180910390f35b6103f060048036038101906103eb91906122d1565b611838565b005b61040c60048036038101906104079190611f78565b611912565b6040516104199190612187565b60405180910390f35b61043c600480360381019061043791906122d1565b61194a565b005b610458600480360381019061045391906124ae565b6119ce565b005b606060018054905082106104a3576040517f08c379a000000000000000000000000000000000000000000000000000000000815260040161049a90612580565b60405180910390fd5b5f600183815481106104b8576104b761259e565b5b905f5260205f20906004020190505f816002018054905067ffffffffffffffff8111156104e8576104e7611e54565b5b6040519080825280602002602001820160405280156105165781602001602082028036833780820191505090505b5090505f5f90505b82600201805490508110156105a45760035f8681526020019081526020015f208360020182815481106105545761055361259e565b5b905f5260205f200160405161056991906126c4565b90815260200160405180910390205482828151811061058b5761058a61259e565b5b602002602001018181525050808060010191505061051e565b508092505050919050565b60018054905082106105f6576040517f08c379a00000000000000000000000000000000000000000000000000000000081526004016105ed90612580565b60405180910390fd5b5f6001838154811061060b5761060a61259e565b5b905f5260205f20906004020190508060030154421061065f576040517f08c379a000000000000000000000000000000000000000000000000000000000815260040161065690612724565b60405180910390fd5b60025f8481526020019081526020015f205f3373ffffffffffffffffffffffffffffffffffffffff1673ffffffffffffffffffffffffffffffffffffffff1681526020019081526020015f205f9054906101000a900460ff16156106f8576040517f08c379a00000000000000000000000000000000000000000000000000000000081526004016106ef9061278c565b60405180910390fd5b5f60055f9054906101000a900473ffffffffffffffffffffffffffffffffffffffff1673ffffffffffffffffffffffffffffffffffffffff166370a08231336040518263ffffffff1660e01b815260040161075391906122b8565b602060405180830381865afa15801561076e573d5f5f3e3d5ffd5b505050506040513d601f19601f8201168201806040525081019061079291906127be565b116107d2576040517f08c379a00000000000000000000000000000000000000000000000000000000081526004016107c990612833565b60405180910390fd5b5f5f90505f5f90505b82600201805490508110156108405783805190602001208360020182815481106108085761080761259e565b5b905f5260205f200160405161081d91906128ed565b6040518091039020036108335760019150610840565b80806001019150506107db565b5080610881576040517f08c379a00000000000000000000000000000000000000000000000000000000081526004016108789061294d565b60405180910390fd5b600160025f8681526020019081526020015f205f3373ffffffffffffffffffffffffffffffffffffffff1673ffffffffffffffffffffffffffffffffffffffff1681526020019081526020015f205f6101000a81548160ff021916908315150217905550600160035f8681526020019081526020015f2084604051610906919061299b565b90815260200160405180910390205f82825461092291906129de565b925050819055503373ffffffffffffffffffffffffffffffffffffffff16847ff707341d6361ac6d7fe6b6db1fbb91b1d8634754ce51f2244ccbfab475d327f48560405161097091906123ac565b60405180910390a360055f9054906101000a900473ffffffffffffffffffffffffffffffffffffffff1673ffffffffffffffffffffffffffffffffffffffff166379cc679033670de0b6b3a76400006040518363ffffffff1660e01b81526004016109dc929190612a4a565b5f604051808303815f87803b1580156109f3575f5ffd5b505af1158015610a05573d5f5f3e3d5ffd5b5050505050505050565b60045f8381526020019081526020015f205f3373ffffffffffffffffffffffffffffffffffffffff1673ffffffffffffffffffffffffffffffffffffffff1681526020019081526020015f205f9054906101000a900460ff16610a7657610a75826112d8565b5b610a8082826105af565b5050565b6060805f6001805490508410610acf576040517f08c379a0000000000000000000000000000000000000000000000000000000008152600401610ac690612580565b60405180910390fd5b5f60018581548110610ae457610ae361259e565b5b905f5260205f209060040201905080600101816002018260030154828054610b0b906125f8565b80601f0160208091040260200160405190810160405280929190818152602001828054610b37906125f8565b8015610b825780601f10610b5957610100808354040283529160200191610b82565b820191905f5260205f20905b815481529060010190602001808311610b6557829003601f168201915b5050505050925081805480602002602001604051908101604052809291908181526020015f905b82821015610c51578382905f5260205f20018054610bc6906125f8565b80601f0160208091040260200160405190810160405280929190818152602001828054610bf2906125f8565b8015610c3d5780601f10610c1457610100808354040283529160200191610c3d565b820191905f5260205f20905b815481529060010190602001808311610c2057829003601f168201915b505050505081526020019060010190610ba9565b505050509150935093509350509193909250565b5f600180549050905090565b6002602052815f5260405f20602052805f5260405f205f915091509054906101000a900460ff1681565b6001805490508210610ce2576040517f08c379a0000000000000000000000000000000000000000000000000000000008152600401610cd990612580565b60405180910390fd5b5f60018381548110610cf757610cf661259e565b5b905f5260205f209060040201905080600301544210610d4b576040517f08c379a0000000000000000000000000000000000000000000000000000000008152600401610d4290612724565b60405180910390fd5b60025f8481526020019081526020015f205f3373ffffffffffffffffffffffffffffffffffffffff1673ffffffffffffffffffffffffffffffffffffffff1681526020019081526020015f205f9054906101000a900460ff1615610de4576040517f08c379a0000000000000000000000000000000000000000000000000000000008152600401610ddb9061278c565b60405180910390fd5b5f60055f9054906101000a900473ffffffffffffffffffffffffffffffffffffffff1673ffffffffffffffffffffffffffffffffffffffff166370a08231336040518263ffffffff1660e01b8152600401610e3f91906122b8565b602060405180830381865afa158015610e5a573d5f5f3e3d5ffd5b505050506040513d601f19601f82011682018060405250810190610e7e91906127be565b11610ebe576040517f08c379a0000000000000000000000000000000000000000000000000000000008152600401610eb590612833565b60405180910390fd5b80600201805490508210610f07576040517f08c379a0000000000000000000000000000000000000000000000000000000008152600401610efe90612abb565b60405180910390fd5b600160025f8581526020019081526020015f205f3373ffffffffffffffffffffffffffffffffffffffff1673ffffffffffffffffffffffffffffffffffffffff1681526020019081526020015f205f6101000a81548160ff021916908315150217905550600160035f8581526020019081526020015f20826002018481548110610f9457610f9361259e565b5b905f5260205f2001604051610fa991906126c4565b90815260200160405180910390205f828254610fc591906129de565b925050819055503373ffffffffffffffffffffffffffffffffffffffff16837ff707341d6361ac6d7fe6b6db1fbb91b1d8634754ce51f2244ccbfab475d327f483600201858154811061101b5761101a61259e565b5b905f5260205f20016040516110309190612b5a565b60405180910390a360055f9054906101000a900473ffffffffffffffffffffffffffffffffffffffff1673ffffffffffffffffffffffffffffffffffffffff166379cc679033670de0b6b3a76400006040518363ffffffff1660e01b815260040161109c929190612a4a565b5f604051808303815f87803b1580156110b3575f5ffd5b505af11580156110c5573d5f5f3e3d5ffd5b50505050505050565b5f670de0b6b3a7640000905090565b60045f8381526020019081526020015f205f3373ffffffffffffffffffffffffffffffffffffffff1673ffffffffffffffffffffffffffffffffffffffff1681526020019081526020015f205f9054906101000a900460ff1661114457611143826112d8565b5b61114e8282610c9b565b5050565b61115a611ad5565b6111635f611b5c565b565b5f60018054905082106111ad576040517f08c379a00000000000000000000000000000000000000000000000000000000081526004016111a490612580565b60405180910390fd5b600182815481106111c1576111c061259e565b5b905f5260205f2090600402016003015442109050919050565b5f5f5f9054906101000a900473ffffffffffffffffffffffffffffffffffffffff16905090565b6004602052815f5260405f20602052805f5260405f205f915091509054906101000a900460ff1681565b5f670de0b6b3a764000060055f9054906101000a900473ffffffffffffffffffffffffffffffffffffffff1673ffffffffffffffffffffffffffffffffffffffff1663dd62ed3e84306040518363ffffffff1660e01b8152600401611291929190612b7a565b602060405180830381865afa1580156112ac573d5f5f3e3d5ffd5b505050506040513d601f19601f820116820180604052508101906112d091906127be565b109050919050565b600180549050811061131f576040517f08c379a000000000000000000000000000000000000000000000000000000000815260040161131690612580565b60405180910390fd5b60045f8281526020019081526020015f205f3373ffffffffffffffffffffffffffffffffffffffff1673ffffffffffffffffffffffffffffffffffffffff1681526020019081526020015f205f9054906101000a900460ff16156113b8576040517f08c379a00000000000000000000000000000000000000000000000000000000081526004016113af90612beb565b60405180910390fd5b600181815481106113cc576113cb61259e565b5b905f5260205f20906004020160030154421061141d576040517f08c379a000000000000000000000000000000000000000000000000000000000815260040161141490612724565b60405180910390fd5b600160045f8381526020019081526020015f205f3373ffffffffffffffffffffffffffffffffffffffff1673ffffffffffffffffffffffffffffffffffffffff1681526020019081526020015f205f6101000a81548160ff02191690831515021790555060055f9054906101000a900473ffffffffffffffffffffffffffffffffffffffff1673ffffffffffffffffffffffffffffffffffffffff166340c10f1933670de0b6b3a76400006040518363ffffffff1660e01b81526004016114e5929190612a4a565b5f604051808303815f87803b1580156114fc575f5ffd5b505af115801561150e573d5f5f3e3d5ffd5b505050503373ffffffffffffffffffffffffffffffffffffffff16817f2d03118aa776f7008445f6ca8490a6782ede2db364d741513555ba656ab1879f670de0b6b3a76400006040516115619190612c09565b60405180910390a350565b6001818154811061157b575f80fd5b905f5260205f2090600402015f91509050805f0154908060010180546115a0906125f8565b80601f01602080910402602001604051908101604052809291908181526020018280546115cc906125f8565b80156116175780601f106115ee57610100808354040283529160200191611617565b820191905f5260205f20905b8154815290600101906020018083116115fa57829003601f168201915b5050505050908060030154905083565b60055f9054906101000a900473ffffffffffffffffffffffffffffffffffffffff1681565b60606001805490508210611695576040517f08c379a000000000000000000000000000000000000000000000000000000000815260040161168c90612580565b60405180910390fd5b5f600183815481106116aa576116a961259e565b5b905f5260205f20906004020190505f816002018054905011611701576040517f08c379a00000000000000000000000000000000000000000000000000000000081526004016116f890612c6c565b60405180910390fd5b5f5f90505f5f90505f5f90505b8360020180549050811015611788575f60035f8881526020019081526020015f208560020183815481106117455761174461259e565b5b905f5260205f200160405161175a91906126c4565b90815260200160405180910390205490508381111561177a578093508192505b50808060010191505061170e565b5082600201818154811061179f5761179e61259e565b5b905f5260205f200180546117b2906125f8565b80601f01602080910402602001604051908101604052809291908181526020018280546117de906125f8565b80156118295780601f1061180057610100808354040283529160200191611829565b820191905f5260205f20905b81548152906001019060200180831161180c57829003601f168201915b50505050509350505050919050565b611840611ad5565b5f73ffffffffffffffffffffffffffffffffffffffff1660055f9054906101000a900473ffffffffffffffffffffffffffffffffffffffff1673ffffffffffffffffffffffffffffffffffffffff16146118cf576040517f08c379a00000000000000000000000000000000000000000000000000000000081526004016118c690612cd4565b60405180910390fd5b8060055f6101000a81548173ffffffffffffffffffffffffffffffffffffffff021916908373ffffffffffffffffffffffffffffffffffffffff16021790555050565b6003602052815f5260405f20818051602081018201805184825260208301602085012081835280955050505050505f91509150505481565b611952611ad5565b5f73ffffffffffffffffffffffffffffffffffffffff168173ffffffffffffffffffffffffffffffffffffffff16036119c2575f6040517f1e4fbdf70000000000000000000000000000000000000000000000000000000081526004016119b991906122b8565b60405180910390fd5b6119cb81611b5c565b50565b6119d6611ad5565b5f604051806080016040528060018054905081526020018581526020018481526020018342611a0591906129de565b8152509050600181908060018154018082558091505060019003905f5260205f2090600402015f909190919091505f820151815f01556020820151816001019081611a509190612e77565b506040820151816002019080519060200190611a6d929190611c24565b5060608201518160030155505060018080549050611a8b9190612f46565b7fc3ad3dd4f77bea708d7c21b918efa79c536b30c5048924662db7a2bd96f48316858442611ab991906129de565b604051611ac7929190612f79565b60405180910390a250505050565b611add611c1d565b73ffffffffffffffffffffffffffffffffffffffff16611afb6111da565b73ffffffffffffffffffffffffffffffffffffffff1614611b5a57611b1e611c1d565b6040517f118cdaa7000000000000000000000000000000000000000000000000000000008152600401611b5191906122b8565b60405180910390fd5b565b5f5f5f9054906101000a900473ffffffffffffffffffffffffffffffffffffffff169050815f5f6101000a81548173ffffffffffffffffffffffffffffffffffffffff021916908373ffffffffffffffffffffffffffffffffffffffff1602179055508173ffffffffffffffffffffffffffffffffffffffff168173ffffffffffffffffffffffffffffffffffffffff167f8be0079c531659141344cd1fd0a4f28419497f9722a3daafe3b4186f6b6457e060405160405180910390a35050565b5f33905090565b828054828255905f5260205f20908101928215611c6a579160200282015b82811115611c69578251829081611c599190612e77565b5091602001919060010190611c42565b5b509050611c779190611c7b565b5090565b5b80821115611c9a575f8181611c919190611c9e565b50600101611c7c565b5090565b508054611caa906125f8565b5f825580601f10611cbb5750611cd8565b601f0160209004905f5260205f2090810190611cd79190611cdb565b5b50565b5b80821115611cf2575f815f905550600101611cdc565b5090565b5f604051905090565b5f5ffd5b5f5ffd5b5f819050919050565b611d1981611d07565b8114611d23575f5ffd5b50565b5f81359050611d3481611d10565b92915050565b5f60208284031215611d4f57611d4e611cff565b5b5f611d5c84828501611d26565b91505092915050565b5f81519050919050565b5f82825260208201905092915050565b5f819050602082019050919050565b611d9781611d07565b82525050565b5f611da88383611d8e565b60208301905092915050565b5f602082019050919050565b5f611dca82611d65565b611dd48185611d6f565b9350611ddf83611d7f565b805f5b83811015611e0f578151611df68882611d9d565b9750611e0183611db4565b925050600181019050611de2565b5085935050505092915050565b5f6020820190508181035f830152611e348184611dc0565b905092915050565b5f5ffd5b5f5ffd5b5f601f19601f8301169050919050565b7f4e487b71000000000000000000000000000000000000000000000000000000005f52604160045260245ffd5b611e8a82611e44565b810181811067ffffffffffffffff82111715611ea957611ea8611e54565b5b80604052505050565b5f611ebb611cf6565b9050611ec78282611e81565b919050565b5f67ffffffffffffffff821115611ee657611ee5611e54565b5b611eef82611e44565b9050602081019050919050565b828183375f83830152505050565b5f611f1c611f1784611ecc565b611eb2565b905082815260208101848484011115611f3857611f37611e40565b5b611f43848285611efc565b509392505050565b5f82601f830112611f5f57611f5e611e3c565b5b8135611f6f848260208601611f0a565b91505092915050565b5f5f60408385031215611f8e57611f8d611cff565b5b5f611f9b85828601611d26565b925050602083013567ffffffffffffffff811115611fbc57611fbb611d03565b5b611fc885828601611f4b565b9150509250929050565b5f81519050919050565b5f82825260208201905092915050565b8281835e5f83830152505050565b5f61200482611fd2565b61200e8185611fdc565b935061201e818560208601611fec565b61202781611e44565b840191505092915050565b5f81519050919050565b5f82825260208201905092915050565b5f819050602082019050919050565b5f82825260208201905092915050565b5f61207582611fd2565b61207f818561205b565b935061208f818560208601611fec565b61209881611e44565b840191505092915050565b5f6120ae838361206b565b905092915050565b5f602082019050919050565b5f6120cc82612032565b6120d6818561203c565b9350836020820285016120e88561204c565b805f5b85811015612123578484038952815161210485826120a3565b945061210f836120b6565b925060208a019950506001810190506120eb565b50829750879550505050505092915050565b61213e81611d07565b82525050565b5f6060820190508181035f83015261215c8186611ffa565b9050818103602083015261217081856120c2565b905061217f6040830184612135565b949350505050565b5f60208201905061219a5f830184612135565b92915050565b5f73ffffffffffffffffffffffffffffffffffffffff82169050919050565b5f6121c9826121a0565b9050919050565b6121d9816121bf565b81146121e3575f5ffd5b50565b5f813590506121f4816121d0565b92915050565b5f5f604083850312156122105761220f611cff565b5b5f61221d85828601611d26565b925050602061222e858286016121e6565b9150509250929050565b5f8115159050919050565b61224c81612238565b82525050565b5f6020820190506122655f830184612243565b92915050565b5f5f6040838503121561228157612280611cff565b5b5f61228e85828601611d26565b925050602061229f85828601611d26565b9150509250929050565b6122b2816121bf565b82525050565b5f6020820190506122cb5f8301846122a9565b92915050565b5f602082840312156122e6576122e5611cff565b5b5f6122f3848285016121e6565b91505092915050565b5f60608201905061230f5f830186612135565b81810360208301526123218185611ffa565b90506123306040830184612135565b949350505050565b5f819050919050565b5f61235b612356612351846121a0565b612338565b6121a0565b9050919050565b5f61236c82612341565b9050919050565b5f61237d82612362565b9050919050565b61238d81612373565b82525050565b5f6020820190506123a65f830184612384565b92915050565b5f6020820190508181035f8301526123c48184611ffa565b905092915050565b5f67ffffffffffffffff8211156123e6576123e5611e54565b5b602082029050602081019050919050565b5f5ffd5b5f61240d612408846123cc565b611eb2565b905080838252602082019050602084028301858111156124305761242f6123f7565b5b835b8181101561247757803567ffffffffffffffff81111561245557612454611e3c565b5b8086016124628982611f4b565b85526020850194505050602081019050612432565b5050509392505050565b5f82601f83011261249557612494611e3c565b5b81356124a58482602086016123fb565b91505092915050565b5f5f5f606084860312156124c5576124c4611cff565b5b5f84013567ffffffffffffffff8111156124e2576124e1611d03565b5b6124ee86828701611f4b565b935050602084013567ffffffffffffffff81111561250f5761250e611d03565b5b61251b86828701612481565b925050604061252c86828701611d26565b9150509250925092565b7f506f6c6c20646f6573206e6f74206578697374000000000000000000000000005f82015250565b5f61256a601383611fdc565b915061257582612536565b602082019050919050565b5f6020820190508181035f8301526125978161255e565b9050919050565b7f4e487b71000000000000000000000000000000000000000000000000000000005f52603260045260245ffd5b7f4e487b71000000000000000000000000000000000000000000000000000000005f52602260045260245ffd5b5f600282049050600182168061260f57607f821691505b602082108103612622576126216125cb565b5b50919050565b5f81905092915050565b5f819050815f5260205f209050919050565b5f8154612650816125f8565b61265a8186612628565b9450600182165f81146126745760018114612689576126bb565b60ff19831686528115158202860193506126bb565b61269285612632565b5f5b838110156126b357815481890152600182019150602081019050612694565b838801955050505b50505092915050565b5f6126cf8284612644565b915081905092915050565b7f506f6c6c20697320636c6f7365640000000000000000000000000000000000005f82015250565b5f61270e600e83611fdc565b9150612719826126da565b602082019050919050565b5f6020820190508181035f83015261273b81612702565b9050919050565b7f416c726561647920766f746564000000000000000000000000000000000000005f82015250565b5f612776600d83611fdc565b915061278182612742565b602082019050919050565b5f6020820190508181035f8301526127a38161276a565b9050919050565b5f815190506127b881611d10565b92915050565b5f602082840312156127d3576127d2611cff565b5b5f6127e0848285016127aa565b91505092915050565b7f4e6f20746f6b656e7320746f20766f74650000000000000000000000000000005f82015250565b5f61281d601183611fdc565b9150612828826127e9565b602082019050919050565b5f6020820190508181035f83015261284a81612811565b9050919050565b5f81905092915050565b5f819050815f5260205f209050919050565b5f8154612879816125f8565b6128838186612851565b9450600182165f811461289d57600181146128b2576128e4565b60ff19831686528115158202860193506128e4565b6128bb8561285b565b5f5b838110156128dc578154818901526001820191506020810190506128bd565b838801955050505b50505092915050565b5f6128f8828461286d565b915081905092915050565b7f496e76616c6964206f7074696f6e0000000000000000000000000000000000005f82015250565b5f612937600e83611fdc565b915061294282612903565b602082019050919050565b5f6020820190508181035f8301526129648161292b565b9050919050565b5f61297582611fd2565b61297f8185612628565b935061298f818560208601611fec565b80840191505092915050565b5f6129a6828461296b565b915081905092915050565b7f4e487b71000000000000000000000000000000000000000000000000000000005f52601160045260245ffd5b5f6129e882611d07565b91506129f383611d07565b9250828201905080821115612a0b57612a0a6129b1565b5b92915050565b5f819050919050565b5f612a34612a2f612a2a84612a11565b612338565b611d07565b9050919050565b612a4481612a1a565b82525050565b5f604082019050612a5d5f8301856122a9565b612a6a6020830184612a3b565b9392505050565b7f496e76616c6964206f7074696f6e20696e6465780000000000000000000000005f82015250565b5f612aa5601483611fdc565b9150612ab082612a71565b602082019050919050565b5f6020820190508181035f830152612ad281612a99565b9050919050565b5f8154612ae5816125f8565b612aef8186611fdc565b9450600182165f8114612b095760018114612b1f57612b51565b60ff198316865281151560200286019350612b51565b612b2885612632565b5f5b83811015612b4957815481890152600182019150602081019050612b2a565b808801955050505b50505092915050565b5f6020820190508181035f830152612b728184612ad9565b905092915050565b5f604082019050612b8d5f8301856122a9565b612b9a60208301846122a9565b9392505050565b7f416c7265616479206d696e74656420666f72207468697320706f6c6c000000005f82015250565b5f612bd5601c83611fdc565b9150612be082612ba1565b602082019050919050565b5f6020820190508181035f830152612c0281612bc9565b9050919050565b5f602082019050612c1c5f830184612a3b565b92915050565b7f506f6c6c20686173206e6f206f7074696f6e73000000000000000000000000005f82015250565b5f612c56601383611fdc565b9150612c6182612c22565b602082019050919050565b5f6020820190508181035f830152612c8381612c4a565b9050919050565b7f566f74696e67546f6b656e20616c7265616479207365740000000000000000005f82015250565b5f612cbe601783611fdc565b9150612cc982612c8a565b602082019050919050565b5f6020820190508181035f830152612ceb81612cb2565b9050919050565b5f6020601f8301049050919050565b5f82821b905092915050565b5f60088302612d3c7fffffffffffffffffffffffffffffffffffffffffffffffffffffffffffffffff82612d01565b612d468683612d01565b95508019841693508086168417925050509392505050565b5f612d78612d73612d6e84611d07565b612338565b611d07565b9050919050565b5f819050919050565b612d9183612d5e565b612da5612d9d82612d7f565b848454612d0d565b825550505050565b5f5f905090565b612dbc612dad565b612dc7818484612d88565b505050565b5b81811015612dea57612ddf5f82612db4565b600181019050612dcd565b5050565b601f821115612e2f57612e0081612632565b612e0984612cf2565b81016020851015612e18578190505b612e2c612e2485612cf2565b830182612dcc565b50505b505050565b5f82821c905092915050565b5f612e4f5f1984600802612e34565b1980831691505092915050565b5f612e678383612e40565b9150826002028217905092915050565b612e8082611fd2565b67ffffffffffffffff811115612e9957612e98611e54565b5b612ea382546125f8565b612eae828285612dee565b5f60209050601f831160018114612edf575f8415612ecd578287015190505b612ed78582612e5c565b865550612f3e565b601f198416612eed86612632565b5f5b82811015612f1457848901518255600182019150602085019450602081019050612eef565b86831015612f315784890151612f2d601f891682612e40565b8355505b6001600288020188555050505b505050505050565b5f612f5082611d07565b9150612f5b83611d07565b9250828203905081811115612f7357612f726129b1565b5b92915050565b5f6040820190508181035f830152612f918185611ffa565b9050612fa06020830184612135565b939250505056fea264697066735822122097d1f37d3653d8a6bab4aecd7f8341766fd5abee4161d8bdfca51ecf888fe4d664736f6c634300081e0033","linkReferences":{}},"methodIdentifiers":{"createPoll(string,string[],uint256)":"f8c860f4","getRequiredApproval()":"6d4df2d0","getTotalPolls()":"3ef87d54","getWinnerOption(uint256)":"d1b3d1f6","hasMintedForPoll(uint256,address)":"922c4e39","hasVoted(uint256,address)":"43859632","isPollOpen(uint256)":"894c9b31","mintAndVote(uint256,string)":"36e9fbab","mintAndVoteByIndex(uint256,uint256)":"6db79e3a","mintTokenForPoll(uint256)":"aa4e615b","needsTokenApproval(address)":"94b564d6","owner()":"8da5cb5b","pollDetails(uint256)":"3bf09728","pollResults(uint256)":"213e7ba8","polls(uint256)":"ac2f0074","renounceOwnership()":"715018a6","setVotingToken(address)":"e2d74628","transferOwnership(address)":"f2fde38b","vote(uint256,string)":"24108475","voteByIndex(uint256,uint256)":"46f2f627","voteCounts(uint256,string)":"eeae2ce0","votingToken()":"b0340123"},"id":26}